{"abi":[{"type":"constructor","inputs":[{"name":"_masa","type":"address","internalType":"address"},{"name":"_root","type":"bytes32","internalType":"bytes32"}],"stateMutability":"nonpayable"},{"type":"function","name":"checkCanClaim","inputs":[{"name":"_user","type":"address","internalType":"address"},{"name":"_amount","type":"uint256","internalType":"uint256"},{"name":"_proof","type":"bytes32[]","internalType":"bytes32[]"}],"outputs":[{"name":"","type":"bool","internalType":"bool"}],"stateMutability":"view"},{"type":"function","name":"claim","inputs":[{"name":"_amount","type":"uint256","internalType":"uint256"},{"name":"_proof","type":"bytes32[]","internalType":"bytes32[]"}],"outputs":[],"stateMutability":"nonpayable"},{"type":"function","name":"getClaimCount","inputs":[{"name":"user","type":"address","internalType":"address"}],"outputs":[{"name":"","type":"uint256","internalType":"uint256"}],"stateMutability":"view"},{"type":"function","name":"getClaimCountThreshold","inputs":[],"outputs":[{"name":"","type":"uint256","internalType":"uint256"}],"stateMutability":"view"},{"type":"function","name":"getMasaToken","inputs":[],"outputs":[{"name":"","type":"address","internalType":"address"}],"stateMutability":"view"},{"type":"function","name":"getRoot","inputs":[],"outputs":[{"name":"","type":"bytes32","internalType":"bytes32"}],"stateMutability":"view"},{"type":"function","name":"owner","inputs":[],"outputs":[{"name":"","type":"address","internalType":"address"}],"stateMutability":"view"},{"type":"function","name":"renounceOwnership","inputs":[],"outputs":[],"stateMutability":"nonpayable"},{"type":"function","name":"transferOwnership","inputs":[{"name":"newOwner","type":"address","internalType":"address"}],"outputs":[],"stateMutability":"nonpayable"},{"type":"function","name":"updateClaimCountThreshold","inputs":[{"name":"_newThreshold","type":"uint256","internalType":"uint256"}],"outputs":[],"stateMutability":"nonpayable"},{"type":"function","name":"updateMerkleRoot","inputs":[{"name":"_newRoot","type":"bytes32","internalType":"bytes32"}],"outputs":[],"stateMutability":"nonpayable"},{"type":"function","name":"withdrawTokens","inputs":[{"name":"_token","type":"address","internalType":"address"}],"outputs":[],"stateMutability":"nonpayable"},{"type":"event","name":"ClaimCountThresholdUpdated","inputs":[{"name":"oldThreshold","type":"uint256","indexed":false,"internalType":"uint256"},{"name":"newThreshold","type":"uint256","indexed":false,"internalType":"uint256"}],"anonymous":false},{"type":"event","name":"Claimed","inputs":[{"name":"user","type":"address","indexed":true,"internalType":"address"},{"name":"amount","type":"uint256","indexed":false,"internalType":"uint256"}],"anonymous":false},{"type":"event","name":"MerkleRootUpdated","inputs":[{"name":"oldRoot","type":"bytes32","indexed":false,"internalType":"bytes32"},{"name":"newRoot","type":"bytes32","indexed":false,"internalType":"bytes32"}],"anonymous":false},{"type":"event","name":"OwnershipTransferred","inputs":[{"name":"previousOwner","type":"address","indexed":true,"internalType":"address"},{"name":"newOwner","type":"address","indexed":true,"internalType":"address"}],"anonymous":false},{"type":"event","name":"TokenWithdrawn","inputs":[{"name":"token","type":"address","indexed":true,"internalType":"address"},{"name":"receiver","type":"address","indexed":true,"internalType":"address"},{"name":"amount","type":"uint256","indexed":false,"internalType":"uint256"}],"anonymous":false},{"type":"error","name":"MasaDistributor__CannotBeZeroAddress","inputs":[]},{"type":"error","name":"MasaDistributor__ClaimAmountCannotBeZero","inputs":[]},{"type":"error","name":"MasaDistributor__ClaimCountThresholdExceeded","inputs":[]},{"type":"error","name":"MasaDistributor__InvalidProof","inputs":[{"name":"user","type":"address","internalType":"address"},{"name":"amount","type":"uint256","internalType":"uint256"},{"name":"proof","type":"bytes32[]","internalType":"bytes32[]"}]},{"type":"error","name":"MasaDistributor__NoTokensToWithdraw","inputs":[{"name":"token","type":"address","internalType":"address"}]},{"type":"error","name":"OwnableInvalidOwner","inputs":[{"name":"owner","type":"address","internalType":"address"}]},{"type":"error","name":"OwnableUnauthorizedAccount","inputs":[{"name":"account","type":"address","internalType":"address"}]},{"type":"error","name":"ReentrancyGuardReentrantCall","inputs":[]}],"bytecode":{"object":"0x60a060405234801561000f575f5ffd5b506040516113eb3803806113eb833981810160405281019061003191906102b9565b335f73ffffffffffffffffffffffffffffffffffffffff168173ffffffffffffffffffffffffffffffffffffffff16036100a2575f6040517f1e4fbdf70000000000000000000000000000000000000000000000000000000081526004016100999190610306565b60405180910390fd5b6100b18161016760201b60201c565b50600180819055505f73ffffffffffffffffffffffffffffffffffffffff168273ffffffffffffffffffffffffffffffffffffffff160361011e576040517f201351dd00000000000000000000000000000000000000000000000000000000815260040160405180910390fd5b8173ffffffffffffffffffffffffffffffffffffffff1660808173ffffffffffffffffffffffffffffffffffffffff1681525050806002819055505f600481905550505061031f565b5f5f5f9054906101000a900473ffffffffffffffffffffffffffffffffffffffff169050815f5f6101000a81548173ffffffffffffffffffffffffffffffffffffffff021916908373ffffffffffffffffffffffffffffffffffffffff1602179055508173ffffffffffffffffffffffffffffffffffffffff168173ffffffffffffffffffffffffffffffffffffffff167f8be0079c531659141344cd1fd0a4f28419497f9722a3daafe3b4186f6b6457e060405160405180910390a35050565b5f5ffd5b5f73ffffffffffffffffffffffffffffffffffffffff82169050919050565b5f6102558261022c565b9050919050565b6102658161024b565b811461026f575f5ffd5b50565b5f815190506102808161025c565b92915050565b5f819050919050565b61029881610286565b81146102a2575f5ffd5b50565b5f815190506102b38161028f565b92915050565b5f5f604083850312156102cf576102ce610228565b5b5f6102dc85828601610272565b92505060206102ed858286016102a5565b9150509250929050565b6103008161024b565b82525050565b5f6020820190506103195f8301846102f7565b92915050565b6080516110ad61033e5f395f8181610339015261071701526110ad5ff3fe608060405234801561000f575f5ffd5b50600436106100b2575f3560e01c8063715018a61161006f578063715018a6146101745780638da5cb5b1461017e578063ad59a73d1461019c578063d5fdfe87146101ba578063e4e7022f146101ea578063f2fde38b14610208576100b2565b80632f52ebb7146100b65780632f877e7f146100d25780634783f0ef1461010257806349df728c1461011e5780635ca1e1651461013a5780636bd0e7a814610158575b5f5ffd5b6100d060048036038101906100cb9190610ba4565b610224565b005b6100ec60048036038101906100e79190610c5b565b6103e1565b6040516100f99190610ce6565b60405180910390f35b61011c60048036038101906101179190610d32565b610478565b005b61013860048036038101906101339190610d5d565b6104c5565b005b610142610684565b60405161014f9190610d97565b60405180910390f35b610172600480360381019061016d9190610db0565b61068d565b005b61017c6106da565b005b6101866106ed565b6040516101939190610dea565b60405180910390f35b6101a4610714565b6040516101b19190610dea565b60405180910390f35b6101d460048036038101906101cf9190610d5d565b61073b565b6040516101e19190610e12565b60405180910390f35b6101f2610781565b6040516101ff9190610e12565b60405180910390f35b610222600480360381019061021d9190610d5d565b61078a565b005b61022c61080e565b61023533610854565b61023e836108cf565b5f61024b338585856103e1565b90508061029557338484846040517f65de53e800000000000000000000000000000000000000000000000000000000815260040161028c9493929190610ea3565b60405180910390fd5b600160035f3373ffffffffffffffffffffffffffffffffffffffff1673ffffffffffffffffffffffffffffffffffffffff1681526020019081526020015f205f8282546102e29190610f0e565b925050819055503373ffffffffffffffffffffffffffffffffffffffff167fd8138f8a3f377c5259ca548e70e4c2de94f129f5a11036a15b69513cba2b426a8560405161032f9190610e12565b60405180910390a27f000000000000000000000000000000000000000000000000000000000000000073ffffffffffffffffffffffffffffffffffffffff1663a9059cbb33866040518363ffffffff1660e01b8152600401610392929190610f41565b6020604051808303815f875af11580156103ae573d5f5f3e3d5ffd5b505050506040513d601f19601f820116820180604052508101906103d29190610f92565b50506103dc61090b565b505050565b5f6103eb85610854565b6103f4846108cf565b5f8585604051602001610408929190610f41565b60405160208183030381529060405280519060200120905061046d8484808060200260200160405190810160405280939291908181526020018383602002808284375f81840152601f19601f8201169050808301925050505050505060025483610914565b915050949350505050565b61048061092a565b7ffd69edeceaf1d6832d935be1fba54ca93bf17e71520c6c9ffc08d6e9529f8757600254826040516104b3929190610fbd565b60405180910390a18060028190555050565b6104cd61092a565b5f8190505f8173ffffffffffffffffffffffffffffffffffffffff166370a08231306040518263ffffffff1660e01b815260040161050b9190610dea565b602060405180830381865afa158015610526573d5f5f3e3d5ffd5b505050506040513d601f19601f8201168201806040525081019061054a9190610ff8565b90505f810361059057826040517f1525657e0000000000000000000000000000000000000000000000000000000081526004016105879190610dea565b60405180910390fd5b6105986106ed565b73ffffffffffffffffffffffffffffffffffffffff168373ffffffffffffffffffffffffffffffffffffffff167f8210728e7c071f615b840ee026032693858fbcd5e5359e67e438c890f59e5620836040516105f49190610e12565b60405180910390a38173ffffffffffffffffffffffffffffffffffffffff1663a9059cbb6106206106ed565b836040518363ffffffff1660e01b815260040161063e929190610f41565b6020604051808303815f875af115801561065a573d5f5f3e3d5ffd5b505050506040513d601f19601f8201168201806040525081019061067e9190610f92565b50505050565b5f600254905090565b61069561092a565b7f2f783178e2c15fb3df05c0ba10cb27b121a1a606c68a0070b71488cdb3975beb600454826040516106c8929190611023565b60405180910390a18060048190555050565b6106e261092a565b6106eb5f6109b1565b565b5f5f5f9054906101000a900473ffffffffffffffffffffffffffffffffffffffff16905090565b5f7f0000000000000000000000000000000000000000000000000000000000000000905090565b5f60035f8373ffffffffffffffffffffffffffffffffffffffff1673ffffffffffffffffffffffffffffffffffffffff1681526020019081526020015f20549050919050565b5f600454905090565b61079261092a565b5f73ffffffffffffffffffffffffffffffffffffffff168173ffffffffffffffffffffffffffffffffffffffff1603610802575f6040517f1e4fbdf70000000000000000000000000000000000000000000000000000000081526004016107f99190610dea565b60405180910390fd5b61080b816109b1565b50565b60026001540361084a576040517f3ee5aeb500000000000000000000000000000000000000000000000000000000815260040160405180910390fd5b6002600181905550565b60045460035f8373ffffffffffffffffffffffffffffffffffffffff1673ffffffffffffffffffffffffffffffffffffffff1681526020019081526020015f2054106108cc576040517f1339377100000000000000000000000000000000000000000000000000000000815260040160405180910390fd5b50565b5f8103610908576040517f5e6d590000000000000000000000000000000000000000000000000000000000815260040160405180910390fd5b50565b60018081905550565b5f826109208584610a72565b1490509392505050565b610932610ac3565b73ffffffffffffffffffffffffffffffffffffffff166109506106ed565b73ffffffffffffffffffffffffffffffffffffffff16146109af57610973610ac3565b6040517f118cdaa70000000000000000000000000000000000000000000000000000000081526004016109a69190610dea565b60405180910390fd5b565b5f5f5f9054906101000a900473ffffffffffffffffffffffffffffffffffffffff169050815f5f6101000a81548173ffffffffffffffffffffffffffffffffffffffff021916908373ffffffffffffffffffffffffffffffffffffffff1602179055508173ffffffffffffffffffffffffffffffffffffffff168173ffffffffffffffffffffffffffffffffffffffff167f8be0079c531659141344cd1fd0a4f28419497f9722a3daafe3b4186f6b6457e060405160405180910390a35050565b5f5f8290505f5f90505b8451811015610ab857610aa982868381518110610a9c57610a9b61104a565b5b6020026020010151610aca565b91508080600101915050610a7c565b508091505092915050565b5f33905090565b5f818310610ae157610adc8284610af4565b610aec565b610aeb8383610af4565b5b905092915050565b5f825f528160205260405f20905092915050565b5f5ffd5b5f5ffd5b5f819050919050565b610b2281610b10565b8114610b2c575f5ffd5b50565b5f81359050610b3d81610b19565b92915050565b5f5ffd5b5f5ffd5b5f5ffd5b5f5f83601f840112610b6457610b63610b43565b5b8235905067ffffffffffffffff811115610b8157610b80610b47565b5b602083019150836020820283011115610b9d57610b9c610b4b565b5b9250929050565b5f5f5f60408486031215610bbb57610bba610b08565b5b5f610bc886828701610b2f565b935050602084013567ffffffffffffffff811115610be957610be8610b0c565b5b610bf586828701610b4f565b92509250509250925092565b5f73ffffffffffffffffffffffffffffffffffffffff82169050919050565b5f610c2a82610c01565b9050919050565b610c3a81610c20565b8114610c44575f5ffd5b50565b5f81359050610c5581610c31565b92915050565b5f5f5f5f60608587031215610c7357610c72610b08565b5b5f610c8087828801610c47565b9450506020610c9187828801610b2f565b935050604085013567ffffffffffffffff811115610cb257610cb1610b0c565b5b610cbe87828801610b4f565b925092505092959194509250565b5f8115159050919050565b610ce081610ccc565b82525050565b5f602082019050610cf95f830184610cd7565b92915050565b5f819050919050565b610d1181610cff565b8114610d1b575f5ffd5b50565b5f81359050610d2c81610d08565b92915050565b5f60208284031215610d4757610d46610b08565b5b5f610d5484828501610d1e565b91505092915050565b5f60208284031215610d7257610d71610b08565b5b5f610d7f84828501610c47565b91505092915050565b610d9181610cff565b82525050565b5f602082019050610daa5f830184610d88565b92915050565b5f60208284031215610dc557610dc4610b08565b5b5f610dd284828501610b2f565b91505092915050565b610de481610c20565b82525050565b5f602082019050610dfd5f830184610ddb565b92915050565b610e0c81610b10565b82525050565b5f602082019050610e255f830184610e03565b92915050565b5f82825260208201905092915050565b5f5ffd5b82818337505050565b5f610e538385610e2b565b93507f07ffffffffffffffffffffffffffffffffffffffffffffffffffffffffffffff831115610e8657610e85610e3b565b5b602083029250610e97838584610e3f565b82840190509392505050565b5f606082019050610eb65f830187610ddb565b610ec36020830186610e03565b8181036040830152610ed6818486610e48565b905095945050505050565b7f4e487b71000000000000000000000000000000000000000000000000000000005f52601160045260245ffd5b5f610f1882610b10565b9150610f2383610b10565b9250828201905080821115610f3b57610f3a610ee1565b5b92915050565b5f604082019050610f545f830185610ddb565b610f616020830184610e03565b9392505050565b610f7181610ccc565b8114610f7b575f5ffd5b50565b5f81519050610f8c81610f68565b92915050565b5f60208284031215610fa757610fa6610b08565b5b5f610fb484828501610f7e565b91505092915050565b5f604082019050610fd05f830185610d88565b610fdd6020830184610d88565b9392505050565b5f81519050610ff281610b19565b92915050565b5f6020828403121561100d5761100c610b08565b5b5f61101a84828501610fe4565b91505092915050565b5f6040820190506110365f830185610e03565b6110436020830184610e03565b9392505050565b7f4e487b71000000000000000000000000000000000000000000000000000000005f52603260045260245ffdfea26469706673582212208ebcc05d0a59aef93d1f982a9f5fc9558b83c98acbd9ca48d26fb20c51cad3bd64736f6c634300081c0033","linkReferences":{}},"methodIdentifiers":{"checkCanClaim(address,uint256,bytes32[])":"2f877e7f","claim(uint256,bytes32[])":"2f52ebb7","getClaimCount(address)":"d5fdfe87","getClaimCountThreshold()":"e4e7022f","getMasaToken()":"ad59a73d","getRoot()":"5ca1e165","owner()":"8da5cb5b","renounceOwnership()":"715018a6","transferOwnership(address)":"f2fde38b","updateClaimCountThreshold(uint256)":"6bd0e7a8","updateMerkleRoot(bytes32)":"4783f0ef","withdrawTokens(address)":"49df728c"},"id":0}