{"abi":[{"type":"constructor","inputs":[{"name":"_root","type":"bytes32","internalType":"bytes32"}],"stateMutability":"nonpayable"},{"type":"function","name":"root","inputs":[],"outputs":[{"name":"","type":"bytes32","internalType":"bytes32"}],"stateMutability":"view"},{"type":"function","name":"verify","inputs":[{"name":"_proof","type":"bytes32[]","internalType":"bytes32[]"}],"outputs":[{"name":"","type":"bool","internalType":"bool"}],"stateMutability":"view"}],"bytecode":{"object":"0x6080604052348015600e575f5ffd5b5060405161052a38038061052a8339818101604052810190602e9190606b565b805f81905550506091565b5f5ffd5b5f819050919050565b604d81603d565b81146056575f5ffd5b50565b5f815190506065816046565b92915050565b5f60208284031215607d57607c6039565b5b5f6088848285016059565b91505092915050565b61048c8061009e5f395ff3fe608060405234801561000f575f5ffd5b5060043610610034575f3560e01c80639761163814610038578063ebf0c71714610068575b5f5ffd5b610052600480360381019061004d9190610309565b610086565b60405161005f919061036a565b60405180910390f35b6100706100cb565b60405161007d9190610392565b60405180910390f35b5f6100c4825f543368056bc75e2d631000006040516020016100a9929190610402565b604051602081830303815290604052805190602001206100d0565b9050919050565b5f5481565b5f826100dc85846100e6565b1490509392505050565b5f5f8290505f5f90505b845181101561012c5761011d828683815181106101105761010f610429565b5b6020026020010151610137565b915080806001019150506100f0565b508091505092915050565b5f81831061014e576101498284610161565b610159565b6101588383610161565b5b905092915050565b5f825f528160205260405f20905092915050565b5f604051905090565b5f5ffd5b5f5ffd5b5f5ffd5b5f601f19601f8301169050919050565b7f4e487b71000000000000000000000000000000000000000000000000000000005f52604160045260245ffd5b6101d08261018a565b810181811067ffffffffffffffff821117156101ef576101ee61019a565b5b80604052505050565b5f610201610175565b905061020d82826101c7565b919050565b5f67ffffffffffffffff82111561022c5761022b61019a565b5b602082029050602081019050919050565b5f5ffd5b5f819050919050565b61025381610241565b811461025d575f5ffd5b50565b5f8135905061026e8161024a565b92915050565b5f61028661028184610212565b6101f8565b905080838252602082019050602084028301858111156102a9576102a861023d565b5b835b818110156102d257806102be8882610260565b8452602084019350506020810190506102ab565b5050509392505050565b5f82601f8301126102f0576102ef610186565b5b8135610300848260208601610274565b91505092915050565b5f6020828403121561031e5761031d61017e565b5b5f82013567ffffffffffffffff81111561033b5761033a610182565b5b610347848285016102dc565b91505092915050565b5f8115159050919050565b61036481610350565b82525050565b5f60208201905061037d5f83018461035b565b92915050565b61038c81610241565b82525050565b5f6020820190506103a55f830184610383565b92915050565b5f73ffffffffffffffffffffffffffffffffffffffff82169050919050565b5f6103d4826103ab565b9050919050565b6103e4816103ca565b82525050565b5f819050919050565b6103fc816103ea565b82525050565b5f6040820190506104155f8301856103db565b61042260208301846103f3565b9392505050565b7f4e487b71000000000000000000000000000000000000000000000000000000005f52603260045260245ffdfea2646970667358221220939df440eff075eceb0fe2580ea048e15534d2a7b33063bd8e33d93f1a0d427064736f6c634300081c0033","linkReferences":{}},"methodIdentifiers":{"root()":"ebf0c717","verify(bytes32[])":"97611638"},"id":2}